{
  "_format": "hh-sol-artifact-1",
  "contractName": "NFTMarketplace",
  "sourceName": "contracts/NFTMarketplace.sol",
  "abi": [
    {
      "inputs": [],
      "stateMutability": "nonpayable",
      "type": "constructor"
    },
    {
      "anonymous": false,
      "inputs": [
        {
          "indexed": true,
          "internalType": "address",
          "name": "owner",
          "type": "address"
        },
        {
          "indexed": true,
          "internalType": "address",
          "name": "approved",
          "type": "address"
        },
        {
          "indexed": true,
          "internalType": "uint256",
          "name": "tokenId",
          "type": "uint256"
        }
      ],
      "name": "Approval",
      "type": "event"
    },
    {
      "anonymous": false,
      "inputs": [
        {
          "indexed": true,
          "internalType": "address",
          "name": "owner",
          "type": "address"
        },
        {
          "indexed": true,
          "internalType": "address",
          "name": "operator",
          "type": "address"
        },
        {
          "indexed": false,
          "internalType": "bool",
          "name": "approved",
          "type": "bool"
        }
      ],
      "name": "ApprovalForAll",
      "type": "event"
    },
    {
      "anonymous": false,
      "inputs": [
        {
          "indexed": true,
          "internalType": "uint256",
          "name": "tokenId",
          "type": "uint256"
        },
        {
          "indexed": false,
          "internalType": "address",
          "name": "seller",
          "type": "address"
        },
        {
          "indexed": false,
          "internalType": "address",
          "name": "owner",
          "type": "address"
        },
        {
          "indexed": false,
          "internalType": "uint256",
          "name": "price",
          "type": "uint256"
        },
        {
          "indexed": false,
          "internalType": "bool",
          "name": "sold",
          "type": "bool"
        }
      ],
      "name": "MarketItemCreated",
      "type": "event"
    },
    {
      "anonymous": false,
      "inputs": [
        {
          "indexed": true,
          "internalType": "address",
          "name": "from",
          "type": "address"
        },
        {
          "indexed": true,
          "internalType": "address",
          "name": "to",
          "type": "address"
        },
        {
          "indexed": true,
          "internalType": "uint256",
          "name": "tokenId",
          "type": "uint256"
        }
      ],
      "name": "Transfer",
      "type": "event"
    },
    {
      "inputs": [
        {
          "internalType": "address",
          "name": "to",
          "type": "address"
        },
        {
          "internalType": "uint256",
          "name": "tokenId",
          "type": "uint256"
        }
      ],
      "name": "approve",
      "outputs": [],
      "stateMutability": "nonpayable",
      "type": "function"
    },
    {
      "inputs": [
        {
          "internalType": "address",
          "name": "owner",
          "type": "address"
        }
      ],
      "name": "balanceOf",
      "outputs": [
        {
          "internalType": "uint256",
          "name": "",
          "type": "uint256"
        }
      ],
      "stateMutability": "view",
      "type": "function"
    },
    {
      "inputs": [
        {
          "internalType": "uint256",
          "name": "tokenId",
          "type": "uint256"
        }
      ],
      "name": "buyToken",
      "outputs": [],
      "stateMutability": "payable",
      "type": "function"
    },
    {
      "inputs": [
        {
          "internalType": "uint256",
          "name": "tokenId",
          "type": "uint256"
        }
      ],
      "name": "cancelListing",
      "outputs": [],
      "stateMutability": "nonpayable",
      "type": "function"
    },
    {
      "inputs": [
        {
          "internalType": "string",
          "name": "tokenURI",
          "type": "string"
        },
        {
          "internalType": "uint256",
          "name": "price",
          "type": "uint256"
        }
      ],
      "name": "createToken",
      "outputs": [
        {
          "internalType": "uint256",
          "name": "",
          "type": "uint256"
        }
      ],
      "stateMutability": "payable",
      "type": "function"
    },
    {
      "inputs": [],
      "name": "fetchListedItems",
      "outputs": [
        {
          "components": [
            {
              "internalType": "uint256",
              "name": "tokenId",
              "type": "uint256"
            },
            {
              "internalType": "address payable",
              "name": "seller",
              "type": "address"
            },
            {
              "internalType": "address payable",
              "name": "owner",
              "type": "address"
            },
            {
              "internalType": "uint256",
              "name": "price",
              "type": "uint256"
            },
            {
              "internalType": "bool",
              "name": "sold",
              "type": "bool"
            }
          ],
          "internalType": "struct NFTMarketplace.MarketItem[]",
          "name": "",
          "type": "tuple[]"
        }
      ],
      "stateMutability": "view",
      "type": "function"
    },
    {
      "inputs": [],
      "name": "fetchMarketItems",
      "outputs": [
        {
          "components": [
            {
              "internalType": "uint256",
              "name": "tokenId",
              "type": "uint256"
            },
            {
              "internalType": "address payable",
              "name": "seller",
              "type": "address"
            },
            {
              "internalType": "address payable",
              "name": "owner",
              "type": "address"
            },
            {
              "internalType": "uint256",
              "name": "price",
              "type": "uint256"
            },
            {
              "internalType": "bool",
              "name": "sold",
              "type": "bool"
            }
          ],
          "internalType": "struct NFTMarketplace.MarketItem[]",
          "name": "",
          "type": "tuple[]"
        }
      ],
      "stateMutability": "view",
      "type": "function"
    },
    {
      "inputs": [],
      "name": "fetchMyNfts",
      "outputs": [
        {
          "components": [
            {
              "internalType": "uint256",
              "name": "tokenId",
              "type": "uint256"
            },
            {
              "internalType": "address payable",
              "name": "seller",
              "type": "address"
            },
            {
              "internalType": "address payable",
              "name": "owner",
              "type": "address"
            },
            {
              "internalType": "uint256",
              "name": "price",
              "type": "uint256"
            },
            {
              "internalType": "bool",
              "name": "sold",
              "type": "bool"
            }
          ],
          "internalType": "struct NFTMarketplace.MarketItem[]",
          "name": "",
          "type": "tuple[]"
        }
      ],
      "stateMutability": "view",
      "type": "function"
    },
    {
      "inputs": [
        {
          "internalType": "uint256",
          "name": "tokenId",
          "type": "uint256"
        }
      ],
      "name": "getApproved",
      "outputs": [
        {
          "internalType": "address",
          "name": "",
          "type": "address"
        }
      ],
      "stateMutability": "view",
      "type": "function"
    },
    {
      "inputs": [],
      "name": "getListingPrice",
      "outputs": [
        {
          "internalType": "uint256",
          "name": "",
          "type": "uint256"
        }
      ],
      "stateMutability": "view",
      "type": "function"
    },
    {
      "inputs": [
        {
          "internalType": "address",
          "name": "owner",
          "type": "address"
        },
        {
          "internalType": "address",
          "name": "operator",
          "type": "address"
        }
      ],
      "name": "isApprovedForAll",
      "outputs": [
        {
          "internalType": "bool",
          "name": "",
          "type": "bool"
        }
      ],
      "stateMutability": "view",
      "type": "function"
    },
    {
      "inputs": [],
      "name": "name",
      "outputs": [
        {
          "internalType": "string",
          "name": "",
          "type": "string"
        }
      ],
      "stateMutability": "view",
      "type": "function"
    },
    {
      "inputs": [
        {
          "internalType": "uint256",
          "name": "tokenId",
          "type": "uint256"
        }
      ],
      "name": "ownerOf",
      "outputs": [
        {
          "internalType": "address",
          "name": "",
          "type": "address"
        }
      ],
      "stateMutability": "view",
      "type": "function"
    },
    {
      "inputs": [
        {
          "internalType": "uint256",
          "name": "tokenId",
          "type": "uint256"
        },
        {
          "internalType": "uint256",
          "name": "price",
          "type": "uint256"
        }
      ],
      "name": "resellToken",
      "outputs": [],
      "stateMutability": "payable",
      "type": "function"
    },
    {
      "inputs": [
        {
          "internalType": "address",
          "name": "from",
          "type": "address"
        },
        {
          "internalType": "address",
          "name": "to",
          "type": "address"
        },
        {
          "internalType": "uint256",
          "name": "tokenId",
          "type": "uint256"
        }
      ],
      "name": "safeTransferFrom",
      "outputs": [],
      "stateMutability": "nonpayable",
      "type": "function"
    },
    {
      "inputs": [
        {
          "internalType": "address",
          "name": "from",
          "type": "address"
        },
        {
          "internalType": "address",
          "name": "to",
          "type": "address"
        },
        {
          "internalType": "uint256",
          "name": "tokenId",
          "type": "uint256"
        },
        {
          "internalType": "bytes",
          "name": "data",
          "type": "bytes"
        }
      ],
      "name": "safeTransferFrom",
      "outputs": [],
      "stateMutability": "nonpayable",
      "type": "function"
    },
    {
      "inputs": [
        {
          "internalType": "address",
          "name": "operator",
          "type": "address"
        },
        {
          "internalType": "bool",
          "name": "approved",
          "type": "bool"
        }
      ],
      "name": "setApprovalForAll",
      "outputs": [],
      "stateMutability": "nonpayable",
      "type": "function"
    },
    {
      "inputs": [
        {
          "internalType": "bytes4",
          "name": "interfaceId",
          "type": "bytes4"
        }
      ],
      "name": "supportsInterface",
      "outputs": [
        {
          "internalType": "bool",
          "name": "",
          "type": "bool"
        }
      ],
      "stateMutability": "view",
      "type": "function"
    },
    {
      "inputs": [],
      "name": "symbol",
      "outputs": [
        {
          "internalType": "string",
          "name": "",
          "type": "string"
        }
      ],
      "stateMutability": "view",
      "type": "function"
    },
    {
      "inputs": [
        {
          "internalType": "uint256",
          "name": "tokenId",
          "type": "uint256"
        }
      ],
      "name": "tokenURI",
      "outputs": [
        {
          "internalType": "string",
          "name": "",
          "type": "string"
        }
      ],
      "stateMutability": "view",
      "type": "function"
    },
    {
      "inputs": [
        {
          "internalType": "address",
          "name": "from",
          "type": "address"
        },
        {
          "internalType": "address",
          "name": "to",
          "type": "address"
        },
        {
          "internalType": "uint256",
          "name": "tokenId",
          "type": "uint256"
        }
      ],
      "name": "transferFrom",
      "outputs": [],
      "stateMutability": "nonpayable",
      "type": "function"
    },
    {
      "inputs": [
        {
          "internalType": "uint256",
          "name": "_listingPrice",
          "type": "uint256"
        }
      ],
      "name": "updateListingPrice",
      "outputs": [],
      "stateMutability": "payable",
      "type": "function"
    },
    {
      "inputs": [],
      "name": "withdraw",
      "outputs": [],
      "stateMutability": "nonpayable",
      "type": "function"
    }
  ],
  "bytecode": "0x608060405264e8d4a510006009553480156200001a57600080fd5b50604080518082018252600d81526c135bdbdb9cda1a5c9948139195609a1b60208083019182528351808501909452600484526326a7a7a760e11b9084015281519192916200006c916000916200009d565b508051620000829060019060208401906200009d565b5050600a80546001600160a01b031916331790555062000180565b828054620000ab9062000143565b90600052602060002090601f016020900481019282620000cf57600085556200011a565b82601f10620000ea57805160ff19168380011785556200011a565b828001600101855582156200011a579182015b828111156200011a578251825591602001919060010190620000fd565b50620001289291506200012c565b5090565b5b808211156200012857600081556001016200012d565b600181811c908216806200015857607f821691505b602082108114156200017a57634e487b7160e01b600052602260045260246000fd5b50919050565b61252980620001906000396000f3fe6080604052600436106101405760003560e01c806342842e0e116100b6578063ae677aa31161006f578063ae677aa31461035c578063b88d4fde1461036f578063c87b56dd1461038f578063cfd31e2c146103af578063e219fc75146103c4578063e985e9c5146103d757600080fd5b806342842e0e146102b45780636352211e146102d457806370a08231146102f457806372b3b6201461031457806395d89b4114610327578063a22cb4651461033c57600080fd5b8063128ae71211610108578063128ae7121461021857806312e855851461022d57806323b872dd1461024c5780632d296bf11461026c578063305a67a81461027f5780633ccfd60b1461029f57600080fd5b806301ffc9a71461014557806306fdde031461017a578063081812fc1461019c578063095ea7b3146101d45780630f08efe0146101f6575b600080fd5b34801561015157600080fd5b506101656101603660046120f0565b610420565b60405190151581526020015b60405180910390f35b34801561018657600080fd5b5061018f610472565b60405161017191906122cb565b3480156101a857600080fd5b506101bc6101b736600461217e565b610504565b6040516001600160a01b039091168152602001610171565b3480156101e057600080fd5b506101f46101ef3660046120c7565b61052b565b005b34801561020257600080fd5b5061020b610646565b604051610171919061224f565b34801561022457600080fd5b5061020b6107fa565b34801561023957600080fd5b506009545b604051908152602001610171565b34801561025857600080fd5b506101f4610267366004611fd9565b6109ec565b6101f461027a36600461217e565b610a1d565b34801561028b57600080fd5b506101f461029a36600461217e565b610b88565b3480156102ab57600080fd5b506101f4610d4c565b3480156102c057600080fd5b506101f46102cf366004611fd9565b610e51565b3480156102e057600080fd5b506101bc6102ef36600461217e565b610e6c565b34801561030057600080fd5b5061023e61030f366004611f8d565b610ecc565b61023e610322366004612128565b610f52565b34801561033357600080fd5b5061018f610f94565b34801561034857600080fd5b506101f461035736600461208d565b610fa3565b6101f461036a36600461217e565b610fae565b34801561037b57600080fd5b506101f461038a366004612014565b611026565b34801561039b57600080fd5b5061018f6103aa36600461217e565b611058565b3480156103bb57600080fd5b5061020b611169565b6101f46103d2366004612196565b61135b565b3480156103e357600080fd5b506101656103f2366004611fa7565b6001600160a01b03918216600090815260056020908152604080832093909416825291909152205460ff1690565b60006001600160e01b031982166380ac58cd60e01b148061045157506001600160e01b03198216635b5e139f60e01b145b8061046c57506301ffc9a760e01b6001600160e01b03198316145b92915050565b60606000805461048190612431565b80601f01602080910402602001604051908101604052809291908181526020018280546104ad90612431565b80156104fa5780601f106104cf576101008083540402835291602001916104fa565b820191906000526020600020905b8154815290600101906020018083116104dd57829003601f168201915b5050505050905090565b600061050f82611453565b506000908152600460205260409020546001600160a01b031690565b600061053682610e6c565b9050806001600160a01b0316836001600160a01b031614156105a95760405162461bcd60e51b815260206004820152602160248201527f4552433732313a20617070726f76616c20746f2063757272656e74206f776e656044820152603960f91b60648201526084015b60405180910390fd5b336001600160a01b03821614806105c557506105c581336103f2565b6106375760405162461bcd60e51b815260206004820152603e60248201527f4552433732313a20617070726f76652063616c6c6572206973206e6f7420746f60448201527f6b656e206f776e6572206e6f7220617070726f76656420666f7220616c6c000060648201526084016105a0565b61064183836114b5565b505050565b6060600061065360075490565b9050600061066060085490565b60075461066d91906123ee565b90506000808267ffffffffffffffff81111561069957634e487b7160e01b600052604160045260246000fd5b6040519080825280602002602001820160405280156106f257816020015b6040805160a0810182526000808252602080830182905292820181905260608201819052608082015282526000199092019101816106b75790505b50905060005b848110156107f15730600b60006107108460016123c2565b81526020810191909152604001600020600201546001600160a01b031614156107df5760006107408260016123c2565b6000818152600b6020908152604091829020825160a0810184528154815260018201546001600160a01b039081169382019390935260028201549092169282019290925260038201546060820152600482015460ff1615156080820152855192935090918590879081106107c457634e487b7160e01b600052603260045260246000fd5b60209081029190910101526107da6001866123c2565b945050505b806107e98161246c565b9150506106f8565b50949350505050565b6060600061080760075490565b905060008060005b8381101561086a5733600b60006108278460016123c2565b81526020810191909152604001600020600201546001600160a01b03161415610858576108556001846123c2565b92505b806108628161246c565b91505061080f565b5060008267ffffffffffffffff81111561089457634e487b7160e01b600052604160045260246000fd5b6040519080825280602002602001820160405280156108ed57816020015b6040805160a0810182526000808252602080830182905292820181905260608201819052608082015282526000199092019101816108b25790505b50905060005b848110156107f15733600b600061090b8460016123c2565b81526020810191909152604001600020600201546001600160a01b031614156109da57600061093b8260016123c2565b6000818152600b6020908152604091829020825160a0810184528154815260018201546001600160a01b039081169382019390935260028201549092169282019290925260038201546060820152600482015460ff1615156080820152855192935090918590879081106109bf57634e487b7160e01b600052603260045260246000fd5b60209081029190910101526109d56001866123c2565b945050505b806109e48161246c565b9150506108f3565b6109f63382611523565b610a125760405162461bcd60e51b81526004016105a090612374565b6106418383836115a1565b6000818152600b6020526040902060038101546001909101546001600160a01b0316348214610ab6576040805162461bcd60e51b81526020600482015260248101919091527f506c65617365207375626d6974207468652061736b696e67207072696365206960448201527f6e206f7264657220746f20636f6d706c6574652074686520707572636861736560648201526084016105a0565b6000838152600b602052604090206002810180546001600160a01b0319908116331790915560048201805460ff1916600190811790915590910180549091169055610b05600880546001019055565b610b103033856115a1565b600a546009546040516001600160a01b039092169181156108fc0291906000818181858888f19350505050158015610b4c573d6000803e3d6000fd5b506040516001600160a01b038216903480156108fc02916000818181858888f19350505050158015610b82573d6000803e3d6000fd5b50505050565b6000818152600b6020908152604091829020825160a0810184528154815260018201546001600160a01b039081169382019390935260028201549092169282019290925260038201546060820181905260049092015460ff161515608082015290610c485760405162461bcd60e51b815260206004820152602a60248201527f4e46544d61726b6574706c6163653a204e6674206973206e6f74206c697374656044820152696420666f722073616c6560b01b60648201526084016105a0565b60208101516001600160a01b03163314610cb25760405162461bcd60e51b815260206004820152602560248201527f4e46544d61726b6574706c6163653a20596f75277265206e6f7420746865207360448201526432b63632b960d91b60648201526084016105a0565b6040516323b872dd60e01b8152306004820181905233602483015260448201849052906323b872dd90606401600060405180830381600087803b158015610cf857600080fd5b505af1158015610d0c573d6000803e3d6000fd5b50505060009283525050600b6020526040812060038101919091556001810180546001600160a01b03199081163317909155600290910180549091169055565b4780610da85760405162461bcd60e51b815260206004820152602560248201527f4e46544d61726b6574706c6163653a20436f6e74726163742062616c616e6365604482015264020697320360dc1b60648201526084016105a0565b600a546001600160a01b03163314610e215760405162461bcd60e51b815260206004820152603660248201527f4e46544d61726b6574706c6163653a204f6e6c79206f776e65722063616e207060448201527532b93337b936903a3434b99037b832b930ba34b7b71760511b60648201526084016105a0565b60405133904780156108fc02916000818181858888f19350505050158015610e4d573d6000803e3d6000fd5b5050565b61064183838360405180602001604052806000815250611026565b6000818152600260205260408120546001600160a01b03168061046c5760405162461bcd60e51b8152602060048201526018602482015277115490cdcc8c4e881a5b9d985b1a59081d1bdad95b88125160421b60448201526064016105a0565b60006001600160a01b038216610f365760405162461bcd60e51b815260206004820152602960248201527f4552433732313a2061646472657373207a65726f206973206e6f7420612076616044820152683634b21037bbb732b960b91b60648201526084016105a0565b506001600160a01b031660009081526003602052604090205490565b6000610f62600780546001019055565b6000610f6d60075490565b9050610f79338261173d565b610f83818561187f565b610f8d8184611919565b9392505050565b60606001805461048190612431565b610e4d338383611a6f565b600a546001600160a01b031633146110215760405162461bcd60e51b815260206004820152603060248201527f4f6e6c79206d61726b6574706c616365206f776e65722063616e20757064617460448201526f32903634b9ba34b73390383934b1b29760811b60648201526084016105a0565b600955565b6110303383611523565b61104c5760405162461bcd60e51b81526004016105a090612374565b610b8284848484611b3e565b606061106382611453565b6000828152600660205260408120805461107c90612431565b80601f01602080910402602001604051908101604052809291908181526020018280546110a890612431565b80156110f55780601f106110ca576101008083540402835291602001916110f5565b820191906000526020600020905b8154815290600101906020018083116110d857829003601f168201915b50505050509050600061111360408051602081019091526000815290565b9050805160001415611126575092915050565b8151156111585780826040516020016111409291906121e3565b60405160208183030381529060405292505050919050565b61116184611b71565b949350505050565b6060600061117660075490565b905060008060005b838110156111d95733600b60006111968460016123c2565b81526020810191909152604001600020600101546001600160a01b031614156111c7576111c46001846123c2565b92505b806111d18161246c565b91505061117e565b5060008267ffffffffffffffff81111561120357634e487b7160e01b600052604160045260246000fd5b60405190808252806020026020018201604052801561125c57816020015b6040805160a0810182526000808252602080830182905292820181905260608201819052608082015282526000199092019101816112215790505b50905060005b848110156107f15733600b600061127a8460016123c2565b81526020810191909152604001600020600101546001600160a01b031614156113495760006112aa8260016123c2565b6000818152600b6020908152604091829020825160a0810184528154815260018201546001600160a01b039081169382019390935260028201549092169282019290925260038201546060820152600482015460ff16151560808201528551929350909185908790811061132e57634e487b7160e01b600052603260045260246000fd5b60209081029190910101526113446001866123c2565b945050505b806113538161246c565b915050611262565b6000828152600b60205260409020600201546001600160a01b031633146113d75760405162461bcd60e51b815260206004820152602a60248201527f4f6e6c79206974656d206f776e65722063616e20706572666f726d20746869736044820152691037b832b930ba34b7b760b11b60648201526084016105a0565b60095434146113f85760405162461bcd60e51b81526004016105a090612330565b6000828152600b6020526040902060048101805460ff19169055600381018290556001810180546001600160a01b0319908116331790915560029091018054909116301790556114486008611be4565b610e4d3330846115a1565b6000818152600260205260409020546001600160a01b03166114b25760405162461bcd60e51b8152602060048201526018602482015277115490cdcc8c4e881a5b9d985b1a59081d1bdad95b88125160421b60448201526064016105a0565b50565b600081815260046020526040902080546001600160a01b0319166001600160a01b03841690811790915581906114ea82610e6c565b6001600160a01b03167f8c5be1e5ebec7d5bd14f71427d1e84f3dd0314c0f7b2291e5b200ac8c7c3b92560405160405180910390a45050565b60008061152f83610e6c565b9050806001600160a01b0316846001600160a01b0316148061157657506001600160a01b0380821660009081526005602090815260408083209388168352929052205460ff165b806111615750836001600160a01b031661158f84610504565b6001600160a01b031614949350505050565b826001600160a01b03166115b482610e6c565b6001600160a01b0316146116185760405162461bcd60e51b815260206004820152602560248201527f4552433732313a207472616e736665722066726f6d20696e636f72726563742060448201526437bbb732b960d91b60648201526084016105a0565b6001600160a01b03821661167a5760405162461bcd60e51b8152602060048201526024808201527f4552433732313a207472616e7366657220746f20746865207a65726f206164646044820152637265737360e01b60648201526084016105a0565b6116856000826114b5565b6001600160a01b03831660009081526003602052604081208054600192906116ae9084906123ee565b90915550506001600160a01b03821660009081526003602052604081208054600192906116dc9084906123c2565b909155505060008181526002602052604080822080546001600160a01b0319166001600160a01b0386811691821790925591518493918716917fddf252ad1be2c89b69c2b068fc378daa952ba7f163c4a11628f55a4df523b3ef91a4505050565b6001600160a01b0382166117935760405162461bcd60e51b815260206004820181905260248201527f4552433732313a206d696e7420746f20746865207a65726f206164647265737360448201526064016105a0565b6000818152600260205260409020546001600160a01b0316156117f85760405162461bcd60e51b815260206004820152601c60248201527f4552433732313a20746f6b656e20616c7265616479206d696e7465640000000060448201526064016105a0565b6001600160a01b03821660009081526003602052604081208054600192906118219084906123c2565b909155505060008181526002602052604080822080546001600160a01b0319166001600160a01b03861690811790915590518392907fddf252ad1be2c89b69c2b068fc378daa952ba7f163c4a11628f55a4df523b3ef908290a45050565b6000828152600260205260409020546001600160a01b03166118fa5760405162461bcd60e51b815260206004820152602e60248201527f45524337323155524953746f726167653a2055524920736574206f66206e6f6e60448201526d32bc34b9ba32b73a103a37b5b2b760911b60648201526084016105a0565b6000828152600660209081526040909120825161064192840190611e62565b600081116119695760405162461bcd60e51b815260206004820152601c60248201527f5072696365206d757374206265206174206c656173742031207765690000000060448201526064016105a0565b600954341461198a5760405162461bcd60e51b81526004016105a090612330565b6040805160a08101825283815233602080830182815230848601818152606086018881526000608088018181528b8252600b909652979097209551865591516001860180546001600160a01b03199081166001600160a01b0393841617909155925160028701805490941691161790915593516003840155516004909201805460ff191692151592909217909155611a2291846115a1565b604080513381523060208201529081018290526000606082015282907fb640004f1d14576d0c209e240cad0410e0d8c0c33a09375861fbadae2588a98d9060800160405180910390a25050565b816001600160a01b0316836001600160a01b03161415611ad15760405162461bcd60e51b815260206004820152601960248201527f4552433732313a20617070726f766520746f2063616c6c65720000000000000060448201526064016105a0565b6001600160a01b03838116600081815260056020908152604080832094871680845294825291829020805460ff191686151590811790915591519182527f17307eab39ab6107e8899845ad3d59bd9653f200f220920489ca2b5937696c31910160405180910390a3505050565b611b498484846115a1565b611b5584848484611c3b565b610b825760405162461bcd60e51b81526004016105a0906122de565b6060611b7c82611453565b6000611b9360408051602081019091526000815290565b90506000815111611bb35760405180602001604052806000815250610f8d565b80611bbd84611d48565b604051602001611bce9291906121e3565b6040516020818303038152906040529392505050565b805480611c335760405162461bcd60e51b815260206004820152601b60248201527f436f756e7465723a2064656372656d656e74206f766572666c6f77000000000060448201526064016105a0565b600019019055565b60006001600160a01b0384163b15611d3d57604051630a85bd0160e11b81526001600160a01b0385169063150b7a0290611c7f903390899088908890600401612212565b602060405180830381600087803b158015611c9957600080fd5b505af1925050508015611cc9575060408051601f3d908101601f19168201909252611cc69181019061210c565b60015b611d23573d808015611cf7576040519150601f19603f3d011682016040523d82523d6000602084013e611cfc565b606091505b508051611d1b5760405162461bcd60e51b81526004016105a0906122de565b805181602001fd5b6001600160e01b031916630a85bd0160e11b149050611161565b506001949350505050565b606081611d6c5750506040805180820190915260018152600360fc1b602082015290565b8160005b8115611d965780611d808161246c565b9150611d8f9050600a836123da565b9150611d70565b60008167ffffffffffffffff811115611dbf57634e487b7160e01b600052604160045260246000fd5b6040519080825280601f01601f191660200182016040528015611de9576020820181803683370190505b5090505b841561116157611dfe6001836123ee565b9150611e0b600a86612487565b611e169060306123c2565b60f81b818381518110611e3957634e487b7160e01b600052603260045260246000fd5b60200101906001600160f81b031916908160001a905350611e5b600a866123da565b9450611ded565b828054611e6e90612431565b90600052602060002090601f016020900481019282611e905760008555611ed6565b82601f10611ea957805160ff1916838001178555611ed6565b82800160010185558215611ed6579182015b82811115611ed6578251825591602001919060010190611ebb565b50611ee2929150611ee6565b5090565b5b80821115611ee25760008155600101611ee7565b600067ffffffffffffffff80841115611f1657611f166124c7565b604051601f8501601f19908116603f01168101908282118183101715611f3e57611f3e6124c7565b81604052809350858152868686011115611f5757600080fd5b858560208301376000602087830101525050509392505050565b80356001600160a01b0381168114611f8857600080fd5b919050565b600060208284031215611f9e578081fd5b610f8d82611f71565b60008060408385031215611fb9578081fd5b611fc283611f71565b9150611fd060208401611f71565b90509250929050565b600080600060608486031215611fed578081fd5b611ff684611f71565b925061200460208501611f71565b9150604084013590509250925092565b60008060008060808587031215612029578081fd5b61203285611f71565b935061204060208601611f71565b925060408501359150606085013567ffffffffffffffff811115612062578182fd5b8501601f81018713612072578182fd5b61208187823560208401611efb565b91505092959194509250565b6000806040838503121561209f578182fd5b6120a883611f71565b9150602083013580151581146120bc578182fd5b809150509250929050565b600080604083850312156120d9578182fd5b6120e283611f71565b946020939093013593505050565b600060208284031215612101578081fd5b8135610f8d816124dd565b60006020828403121561211d578081fd5b8151610f8d816124dd565b6000806040838503121561213a578182fd5b823567ffffffffffffffff811115612150578283fd5b8301601f81018513612160578283fd5b61216f85823560208401611efb565b95602094909401359450505050565b60006020828403121561218f578081fd5b5035919050565b600080604083850312156121a8578182fd5b50508035926020909101359150565b600081518084526121cf816020860160208601612405565b601f01601f19169290920160200192915050565b600083516121f5818460208801612405565b835190830190612209818360208801612405565b01949350505050565b6001600160a01b0385811682528416602082015260408101839052608060608201819052600090612245908301846121b7565b9695505050505050565b602080825282518282018190526000919060409081850190868401855b828110156122be57815180518552868101516001600160a01b03908116888701528682015116868601526060808201519086015260809081015115159085015260a0909301929085019060010161226c565b5091979650505050505050565b602081526000610f8d60208301846121b7565b60208082526032908201527f4552433732313a207472616e7366657220746f206e6f6e20455243373231526560408201527131b2b4bb32b91034b6b83632b6b2b73a32b960711b606082015260800190565b60208082526024908201527f5072696365206d75737420626520657175616c20746f206c697374696e6720706040820152637269636560e01b606082015260800190565b6020808252602e908201527f4552433732313a2063616c6c6572206973206e6f7420746f6b656e206f776e6560408201526d1c881b9bdc88185c1c1c9bdd995960921b606082015260800190565b600082198211156123d5576123d561249b565b500190565b6000826123e9576123e96124b1565b500490565b6000828210156124005761240061249b565b500390565b60005b83811015612420578181015183820152602001612408565b83811115610b825750506000910152565b600181811c9082168061244557607f821691505b6020821081141561246657634e487b7160e01b600052602260045260246000fd5b50919050565b60006000198214156124805761248061249b565b5060010190565b600082612496576124966124b1565b500690565b634e487b7160e01b600052601160045260246000fd5b634e487b7160e01b600052601260045260246000fd5b634e487b7160e01b600052604160045260246000fd5b6001600160e01b0319811681146114b257600080fdfea2646970667358221220c89411bed1590659b0ab63dbc0d2d3e8b5487361435a9cea76da076b5cffe60664736f6c63430008040033",
  "linkReferences": {},
  "deployedLinkReferences": {}
}