{
  "_format": "hh-sol-artifact-1",
  "contractName": "NFTMarketplace",
  "sourceName": "contracts/NFTMarketplace.sol",
  "abi": [
    {
      "inputs": [],
      "stateMutability": "nonpayable",
      "type": "constructor"
    },
    {
      "anonymous": false,
      "inputs": [
        {
          "indexed": true,
          "internalType": "address",
          "name": "owner",
          "type": "address"
        },
        {
          "indexed": true,
          "internalType": "address",
          "name": "approved",
          "type": "address"
        },
        {
          "indexed": true,
          "internalType": "uint256",
          "name": "tokenId",
          "type": "uint256"
        }
      ],
      "name": "Approval",
      "type": "event"
    },
    {
      "anonymous": false,
      "inputs": [
        {
          "indexed": true,
          "internalType": "address",
          "name": "owner",
          "type": "address"
        },
        {
          "indexed": true,
          "internalType": "address",
          "name": "operator",
          "type": "address"
        },
        {
          "indexed": false,
          "internalType": "bool",
          "name": "approved",
          "type": "bool"
        }
      ],
      "name": "ApprovalForAll",
      "type": "event"
    },
    {
      "anonymous": false,
      "inputs": [
        {
          "indexed": true,
          "internalType": "uint256",
          "name": "tokenId",
          "type": "uint256"
        },
        {
          "indexed": false,
          "internalType": "address",
          "name": "seller",
          "type": "address"
        },
        {
          "indexed": false,
          "internalType": "address",
          "name": "owner",
          "type": "address"
        },
        {
          "indexed": false,
          "internalType": "uint256",
          "name": "price",
          "type": "uint256"
        },
        {
          "indexed": false,
          "internalType": "bool",
          "name": "sold",
          "type": "bool"
        }
      ],
      "name": "MarketItemCreated",
      "type": "event"
    },
    {
      "anonymous": false,
      "inputs": [
        {
          "indexed": true,
          "internalType": "address",
          "name": "from",
          "type": "address"
        },
        {
          "indexed": true,
          "internalType": "address",
          "name": "to",
          "type": "address"
        },
        {
          "indexed": true,
          "internalType": "uint256",
          "name": "tokenId",
          "type": "uint256"
        }
      ],
      "name": "Transfer",
      "type": "event"
    },
    {
      "inputs": [
        {
          "internalType": "address",
          "name": "to",
          "type": "address"
        },
        {
          "internalType": "uint256",
          "name": "tokenId",
          "type": "uint256"
        }
      ],
      "name": "approve",
      "outputs": [],
      "stateMutability": "nonpayable",
      "type": "function"
    },
    {
      "inputs": [
        {
          "internalType": "address",
          "name": "owner",
          "type": "address"
        }
      ],
      "name": "balanceOf",
      "outputs": [
        {
          "internalType": "uint256",
          "name": "",
          "type": "uint256"
        }
      ],
      "stateMutability": "view",
      "type": "function"
    },
    {
      "inputs": [
        {
          "internalType": "uint256",
          "name": "tokenId",
          "type": "uint256"
        }
      ],
      "name": "buyToken",
      "outputs": [],
      "stateMutability": "payable",
      "type": "function"
    },
    {
      "inputs": [
        {
          "internalType": "uint256",
          "name": "tokenId",
          "type": "uint256"
        }
      ],
      "name": "cancelListing",
      "outputs": [],
      "stateMutability": "nonpayable",
      "type": "function"
    },
    {
      "inputs": [
        {
          "internalType": "string",
          "name": "tokenURI",
          "type": "string"
        },
        {
          "internalType": "uint256",
          "name": "price",
          "type": "uint256"
        }
      ],
      "name": "createToken",
      "outputs": [
        {
          "internalType": "uint256",
          "name": "",
          "type": "uint256"
        }
      ],
      "stateMutability": "payable",
      "type": "function"
    },
    {
      "inputs": [],
      "name": "fetchListedItems",
      "outputs": [
        {
          "components": [
            {
              "internalType": "uint256",
              "name": "tokenId",
              "type": "uint256"
            },
            {
              "internalType": "address payable",
              "name": "seller",
              "type": "address"
            },
            {
              "internalType": "address payable",
              "name": "owner",
              "type": "address"
            },
            {
              "internalType": "uint256",
              "name": "price",
              "type": "uint256"
            },
            {
              "internalType": "bool",
              "name": "sold",
              "type": "bool"
            }
          ],
          "internalType": "struct NFTMarketplace.MarketItem[]",
          "name": "",
          "type": "tuple[]"
        }
      ],
      "stateMutability": "view",
      "type": "function"
    },
    {
      "inputs": [],
      "name": "fetchMarketItems",
      "outputs": [
        {
          "components": [
            {
              "internalType": "uint256",
              "name": "tokenId",
              "type": "uint256"
            },
            {
              "internalType": "address payable",
              "name": "seller",
              "type": "address"
            },
            {
              "internalType": "address payable",
              "name": "owner",
              "type": "address"
            },
            {
              "internalType": "uint256",
              "name": "price",
              "type": "uint256"
            },
            {
              "internalType": "bool",
              "name": "sold",
              "type": "bool"
            }
          ],
          "internalType": "struct NFTMarketplace.MarketItem[]",
          "name": "",
          "type": "tuple[]"
        }
      ],
      "stateMutability": "view",
      "type": "function"
    },
    {
      "inputs": [],
      "name": "fetchMyNfts",
      "outputs": [
        {
          "components": [
            {
              "internalType": "uint256",
              "name": "tokenId",
              "type": "uint256"
            },
            {
              "internalType": "address payable",
              "name": "seller",
              "type": "address"
            },
            {
              "internalType": "address payable",
              "name": "owner",
              "type": "address"
            },
            {
              "internalType": "uint256",
              "name": "price",
              "type": "uint256"
            },
            {
              "internalType": "bool",
              "name": "sold",
              "type": "bool"
            }
          ],
          "internalType": "struct NFTMarketplace.MarketItem[]",
          "name": "",
          "type": "tuple[]"
        }
      ],
      "stateMutability": "view",
      "type": "function"
    },
    {
      "inputs": [
        {
          "internalType": "uint256",
          "name": "tokenId",
          "type": "uint256"
        }
      ],
      "name": "getApproved",
      "outputs": [
        {
          "internalType": "address",
          "name": "",
          "type": "address"
        }
      ],
      "stateMutability": "view",
      "type": "function"
    },
    {
      "inputs": [],
      "name": "getListingPrice",
      "outputs": [
        {
          "internalType": "uint256",
          "name": "",
          "type": "uint256"
        }
      ],
      "stateMutability": "view",
      "type": "function"
    },
    {
      "inputs": [
        {
          "internalType": "address",
          "name": "owner",
          "type": "address"
        },
        {
          "internalType": "address",
          "name": "operator",
          "type": "address"
        }
      ],
      "name": "isApprovedForAll",
      "outputs": [
        {
          "internalType": "bool",
          "name": "",
          "type": "bool"
        }
      ],
      "stateMutability": "view",
      "type": "function"
    },
    {
      "inputs": [],
      "name": "name",
      "outputs": [
        {
          "internalType": "string",
          "name": "",
          "type": "string"
        }
      ],
      "stateMutability": "view",
      "type": "function"
    },
    {
      "inputs": [
        {
          "internalType": "uint256",
          "name": "tokenId",
          "type": "uint256"
        }
      ],
      "name": "ownerOf",
      "outputs": [
        {
          "internalType": "address",
          "name": "",
          "type": "address"
        }
      ],
      "stateMutability": "view",
      "type": "function"
    },
    {
      "inputs": [
        {
          "internalType": "uint256",
          "name": "tokenId",
          "type": "uint256"
        },
        {
          "internalType": "uint256",
          "name": "price",
          "type": "uint256"
        }
      ],
      "name": "resellToken",
      "outputs": [],
      "stateMutability": "payable",
      "type": "function"
    },
    {
      "inputs": [
        {
          "internalType": "address",
          "name": "from",
          "type": "address"
        },
        {
          "internalType": "address",
          "name": "to",
          "type": "address"
        },
        {
          "internalType": "uint256",
          "name": "tokenId",
          "type": "uint256"
        }
      ],
      "name": "safeTransferFrom",
      "outputs": [],
      "stateMutability": "nonpayable",
      "type": "function"
    },
    {
      "inputs": [
        {
          "internalType": "address",
          "name": "from",
          "type": "address"
        },
        {
          "internalType": "address",
          "name": "to",
          "type": "address"
        },
        {
          "internalType": "uint256",
          "name": "tokenId",
          "type": "uint256"
        },
        {
          "internalType": "bytes",
          "name": "_data",
          "type": "bytes"
        }
      ],
      "name": "safeTransferFrom",
      "outputs": [],
      "stateMutability": "nonpayable",
      "type": "function"
    },
    {
      "inputs": [
        {
          "internalType": "address",
          "name": "operator",
          "type": "address"
        },
        {
          "internalType": "bool",
          "name": "approved",
          "type": "bool"
        }
      ],
      "name": "setApprovalForAll",
      "outputs": [],
      "stateMutability": "nonpayable",
      "type": "function"
    },
    {
      "inputs": [
        {
          "internalType": "bytes4",
          "name": "interfaceId",
          "type": "bytes4"
        }
      ],
      "name": "supportsInterface",
      "outputs": [
        {
          "internalType": "bool",
          "name": "",
          "type": "bool"
        }
      ],
      "stateMutability": "view",
      "type": "function"
    },
    {
      "inputs": [],
      "name": "symbol",
      "outputs": [
        {
          "internalType": "string",
          "name": "",
          "type": "string"
        }
      ],
      "stateMutability": "view",
      "type": "function"
    },
    {
      "inputs": [
        {
          "internalType": "uint256",
          "name": "tokenId",
          "type": "uint256"
        }
      ],
      "name": "tokenURI",
      "outputs": [
        {
          "internalType": "string",
          "name": "",
          "type": "string"
        }
      ],
      "stateMutability": "view",
      "type": "function"
    },
    {
      "inputs": [
        {
          "internalType": "address",
          "name": "from",
          "type": "address"
        },
        {
          "internalType": "address",
          "name": "to",
          "type": "address"
        },
        {
          "internalType": "uint256",
          "name": "tokenId",
          "type": "uint256"
        }
      ],
      "name": "transferFrom",
      "outputs": [],
      "stateMutability": "nonpayable",
      "type": "function"
    },
    {
      "inputs": [
        {
          "internalType": "uint256",
          "name": "_listingPrice",
          "type": "uint256"
        }
      ],
      "name": "updateListingPrice",
      "outputs": [],
      "stateMutability": "payable",
      "type": "function"
    },
    {
      "inputs": [],
      "name": "withdraw",
      "outputs": [],
      "stateMutability": "nonpayable",
      "type": "function"
    }
  ],
  "bytecode": "0x608060405264e8d4a510006009553480156200001a57600080fd5b50604080518082018252600d81526c135bdbdb9cda1a5c9948139195609a1b60208083019182528351808501909452600484526326a7a7a760e11b9084015281519192916200006c916000916200009d565b508051620000829060019060208401906200009d565b5050600a80546001600160a01b031916331790555062000180565b828054620000ab9062000143565b90600052602060002090601f016020900481019282620000cf57600085556200011a565b82601f10620000ea57805160ff19168380011785556200011a565b828001600101855582156200011a579182015b828111156200011a578251825591602001919060010190620000fd565b50620001289291506200012c565b5090565b5b808211156200012857600081556001016200012d565b600181811c908216806200015857607f821691505b602082108114156200017a57634e487b7160e01b600052602260045260246000fd5b50919050565b61267a80620001906000396000f3fe6080604052600436106101405760003560e01c806342842e0e116100b6578063ae677aa31161006f578063ae677aa31461035c578063b88d4fde1461036f578063c87b56dd1461038f578063cfd31e2c146103af578063e219fc75146103c4578063e985e9c5146103d757600080fd5b806342842e0e146102b45780636352211e146102d457806370a08231146102f457806372b3b6201461031457806395d89b4114610327578063a22cb4651461033c57600080fd5b8063128ae71211610108578063128ae7121461021857806312e855851461022d57806323b872dd1461024c5780632d296bf11461026c578063305a67a81461027f5780633ccfd60b1461029f57600080fd5b806301ffc9a71461014557806306fdde031461017a578063081812fc1461019c578063095ea7b3146101d45780630f08efe0146101f6575b600080fd5b34801561015157600080fd5b5061016561016036600461223b565b610420565b60405190151581526020015b60405180910390f35b34801561018657600080fd5b5061018f610472565b6040516101719190612416565b3480156101a857600080fd5b506101bc6101b73660046122c9565b610504565b6040516001600160a01b039091168152602001610171565b3480156101e057600080fd5b506101f46101ef366004612212565b610591565b005b34801561020257600080fd5b5061020b6106a7565b604051610171919061239a565b34801561022457600080fd5b5061020b61085b565b34801561023957600080fd5b506009545b604051908152602001610171565b34801561025857600080fd5b506101f4610267366004612124565b610a4d565b6101f461027a3660046122c9565b610a7e565b34801561028b57600080fd5b506101f461029a3660046122c9565b610be9565b3480156102ab57600080fd5b506101f4610dad565b3480156102c057600080fd5b506101f46102cf366004612124565b610eb2565b3480156102e057600080fd5b506101bc6102ef3660046122c9565b610ecd565b34801561030057600080fd5b5061023e61030f3660046120d8565b610f44565b61023e610322366004612273565b610fcb565b34801561033357600080fd5b5061018f61100d565b34801561034857600080fd5b506101f46103573660046121d8565b61101c565b6101f461036a3660046122c9565b611027565b34801561037b57600080fd5b506101f461038a36600461215f565b61109f565b34801561039b57600080fd5b5061018f6103aa3660046122c9565b6110d1565b3480156103bb57600080fd5b5061020b611248565b6101f46103d23660046122e1565b61143a565b3480156103e357600080fd5b506101656103f23660046120f2565b6001600160a01b03918216600090815260056020908152604080832093909416825291909152205460ff1690565b60006001600160e01b031982166380ac58cd60e01b148061045157506001600160e01b03198216635b5e139f60e01b145b8061046c57506301ffc9a760e01b6001600160e01b03198316145b92915050565b6060600080546104819061257f565b80601f01602080910402602001604051908101604052809291908181526020018280546104ad9061257f565b80156104fa5780601f106104cf576101008083540402835291602001916104fa565b820191906000526020600020905b8154815290600101906020018083116104dd57829003601f168201915b5050505050905090565b600061050f82611532565b6105755760405162461bcd60e51b815260206004820152602c60248201527f4552433732313a20617070726f76656420717565727920666f72206e6f6e657860448201526b34b9ba32b73a103a37b5b2b760a11b60648201526084015b60405180910390fd5b506000908152600460205260409020546001600160a01b031690565b600061059c82610ecd565b9050806001600160a01b0316836001600160a01b0316141561060a5760405162461bcd60e51b815260206004820152602160248201527f4552433732313a20617070726f76616c20746f2063757272656e74206f776e656044820152603960f91b606482015260840161056c565b336001600160a01b0382161480610626575061062681336103f2565b6106985760405162461bcd60e51b815260206004820152603860248201527f4552433732313a20617070726f76652063616c6c6572206973206e6f74206f7760448201527f6e6572206e6f7220617070726f76656420666f7220616c6c0000000000000000606482015260840161056c565b6106a2838361154f565b505050565b606060006106b460075490565b905060006106c160085490565b6007546106ce919061253c565b90506000808267ffffffffffffffff8111156106fa57634e487b7160e01b600052604160045260246000fd5b60405190808252806020026020018201604052801561075357816020015b6040805160a0810182526000808252602080830182905292820181905260608201819052608082015282526000199092019101816107185790505b50905060005b848110156108525730600b6000610771846001612510565b81526020810191909152604001600020600201546001600160a01b031614156108405760006107a1826001612510565b6000818152600b6020908152604091829020825160a0810184528154815260018201546001600160a01b039081169382019390935260028201549092169282019290925260038201546060820152600482015460ff16151560808201528551929350909185908790811061082557634e487b7160e01b600052603260045260246000fd5b602090810291909101015261083b600186612510565b945050505b8061084a816125ba565b915050610759565b50949350505050565b6060600061086860075490565b905060008060005b838110156108cb5733600b6000610888846001612510565b81526020810191909152604001600020600201546001600160a01b031614156108b9576108b6600184612510565b92505b806108c3816125ba565b915050610870565b5060008267ffffffffffffffff8111156108f557634e487b7160e01b600052604160045260246000fd5b60405190808252806020026020018201604052801561094e57816020015b6040805160a0810182526000808252602080830182905292820181905260608201819052608082015282526000199092019101816109135790505b50905060005b848110156108525733600b600061096c846001612510565b81526020810191909152604001600020600201546001600160a01b03161415610a3b57600061099c826001612510565b6000818152600b6020908152604091829020825160a0810184528154815260018201546001600160a01b039081169382019390935260028201549092169282019290925260038201546060820152600482015460ff161515608082015285519293509091859087908110610a2057634e487b7160e01b600052603260045260246000fd5b6020908102919091010152610a36600186612510565b945050505b80610a45816125ba565b915050610954565b610a5733826115bd565b610a735760405162461bcd60e51b815260040161056c906124bf565b6106a28383836116a6565b6000818152600b6020526040902060038101546001909101546001600160a01b0316348214610b17576040805162461bcd60e51b81526020600482015260248101919091527f506c65617365207375626d6974207468652061736b696e67207072696365206960448201527f6e206f7264657220746f20636f6d706c65746520746865207075726368617365606482015260840161056c565b6000838152600b602052604090206002810180546001600160a01b0319908116331790915560048201805460ff1916600190811790915590910180549091169055610b66600880546001019055565b610b713033856116a6565b600a546009546040516001600160a01b039092169181156108fc0291906000818181858888f19350505050158015610bad573d6000803e3d6000fd5b506040516001600160a01b038216903480156108fc02916000818181858888f19350505050158015610be3573d6000803e3d6000fd5b50505050565b6000818152600b6020908152604091829020825160a0810184528154815260018201546001600160a01b039081169382019390935260028201549092169282019290925260038201546060820181905260049092015460ff161515608082015290610ca95760405162461bcd60e51b815260206004820152602a60248201527f4e46544d61726b6574706c6163653a204e6674206973206e6f74206c697374656044820152696420666f722073616c6560b01b606482015260840161056c565b60208101516001600160a01b03163314610d135760405162461bcd60e51b815260206004820152602560248201527f4e46544d61726b6574706c6163653a20596f75277265206e6f7420746865207360448201526432b63632b960d91b606482015260840161056c565b6040516323b872dd60e01b8152306004820181905233602483015260448201849052906323b872dd90606401600060405180830381600087803b158015610d5957600080fd5b505af1158015610d6d573d6000803e3d6000fd5b50505060009283525050600b6020526040812060038101919091556001810180546001600160a01b03199081163317909155600290910180549091169055565b4780610e095760405162461bcd60e51b815260206004820152602560248201527f4e46544d61726b6574706c6163653a20436f6e74726163742062616c616e6365604482015264020697320360dc1b606482015260840161056c565b600a546001600160a01b03163314610e825760405162461bcd60e51b815260206004820152603660248201527f4e46544d61726b6574706c6163653a204f6e6c79206f776e65722063616e207060448201527532b93337b936903a3434b99037b832b930ba34b7b71760511b606482015260840161056c565b60405133904780156108fc02916000818181858888f19350505050158015610eae573d6000803e3d6000fd5b5050565b6106a28383836040518060200160405280600081525061109f565b6000818152600260205260408120546001600160a01b03168061046c5760405162461bcd60e51b815260206004820152602960248201527f4552433732313a206f776e657220717565727920666f72206e6f6e657869737460448201526832b73a103a37b5b2b760b91b606482015260840161056c565b60006001600160a01b038216610faf5760405162461bcd60e51b815260206004820152602a60248201527f4552433732313a2062616c616e636520717565727920666f7220746865207a65604482015269726f206164647265737360b01b606482015260840161056c565b506001600160a01b031660009081526003602052604090205490565b6000610fdb600780546001019055565b6000610fe660075490565b9050610ff23382611842565b610ffc8185611975565b6110068184611a00565b9392505050565b6060600180546104819061257f565b610eae338383611b56565b600a546001600160a01b0316331461109a5760405162461bcd60e51b815260206004820152603060248201527f4f6e6c79206d61726b6574706c616365206f776e65722063616e20757064617460448201526f32903634b9ba34b73390383934b1b29760811b606482015260840161056c565b600955565b6110a933836115bd565b6110c55760405162461bcd60e51b815260040161056c906124bf565b610be384848484611c25565b60606110dc82611532565b6111425760405162461bcd60e51b815260206004820152603160248201527f45524337323155524953746f726167653a2055524920717565727920666f72206044820152703737b732bc34b9ba32b73a103a37b5b2b760791b606482015260840161056c565b6000828152600660205260408120805461115b9061257f565b80601f01602080910402602001604051908101604052809291908181526020018280546111879061257f565b80156111d45780601f106111a9576101008083540402835291602001916111d4565b820191906000526020600020905b8154815290600101906020018083116111b757829003601f168201915b5050505050905060006111f260408051602081019091526000815290565b9050805160001415611205575092915050565b81511561123757808260405160200161121f92919061232e565b60405160208183030381529060405292505050919050565b61124084611c58565b949350505050565b6060600061125560075490565b905060008060005b838110156112b85733600b6000611275846001612510565b81526020810191909152604001600020600101546001600160a01b031614156112a6576112a3600184612510565b92505b806112b0816125ba565b91505061125d565b5060008267ffffffffffffffff8111156112e257634e487b7160e01b600052604160045260246000fd5b60405190808252806020026020018201604052801561133b57816020015b6040805160a0810182526000808252602080830182905292820181905260608201819052608082015282526000199092019101816113005790505b50905060005b848110156108525733600b6000611359846001612510565b81526020810191909152604001600020600101546001600160a01b03161415611428576000611389826001612510565b6000818152600b6020908152604091829020825160a0810184528154815260018201546001600160a01b039081169382019390935260028201549092169282019290925260038201546060820152600482015460ff16151560808201528551929350909185908790811061140d57634e487b7160e01b600052603260045260246000fd5b6020908102919091010152611423600186612510565b945050505b80611432816125ba565b915050611341565b6000828152600b60205260409020600201546001600160a01b031633146114b65760405162461bcd60e51b815260206004820152602a60248201527f4f6e6c79206974656d206f776e65722063616e20706572666f726d20746869736044820152691037b832b930ba34b7b760b11b606482015260840161056c565b60095434146114d75760405162461bcd60e51b815260040161056c9061247b565b6000828152600b6020526040902060048101805460ff19169055600381018290556001810180546001600160a01b0319908116331790915560029091018054909116301790556115276008611d2f565b610eae3330846116a6565b6000908152600260205260409020546001600160a01b0316151590565b600081815260046020526040902080546001600160a01b0319166001600160a01b038416908117909155819061158482610ecd565b6001600160a01b03167f8c5be1e5ebec7d5bd14f71427d1e84f3dd0314c0f7b2291e5b200ac8c7c3b92560405160405180910390a45050565b60006115c882611532565b6116295760405162461bcd60e51b815260206004820152602c60248201527f4552433732313a206f70657261746f7220717565727920666f72206e6f6e657860448201526b34b9ba32b73a103a37b5b2b760a11b606482015260840161056c565b600061163483610ecd565b9050806001600160a01b0316846001600160a01b0316148061167b57506001600160a01b0380821660009081526005602090815260408083209388168352929052205460ff165b806112405750836001600160a01b031661169484610504565b6001600160a01b031614949350505050565b826001600160a01b03166116b982610ecd565b6001600160a01b03161461171d5760405162461bcd60e51b815260206004820152602560248201527f4552433732313a207472616e736665722066726f6d20696e636f72726563742060448201526437bbb732b960d91b606482015260840161056c565b6001600160a01b03821661177f5760405162461bcd60e51b8152602060048201526024808201527f4552433732313a207472616e7366657220746f20746865207a65726f206164646044820152637265737360e01b606482015260840161056c565b61178a60008261154f565b6001600160a01b03831660009081526003602052604081208054600192906117b390849061253c565b90915550506001600160a01b03821660009081526003602052604081208054600192906117e1908490612510565b909155505060008181526002602052604080822080546001600160a01b0319166001600160a01b0386811691821790925591518493918716917fddf252ad1be2c89b69c2b068fc378daa952ba7f163c4a11628f55a4df523b3ef91a4505050565b6001600160a01b0382166118985760405162461bcd60e51b815260206004820181905260248201527f4552433732313a206d696e7420746f20746865207a65726f2061646472657373604482015260640161056c565b6118a181611532565b156118ee5760405162461bcd60e51b815260206004820152601c60248201527f4552433732313a20746f6b656e20616c7265616479206d696e74656400000000604482015260640161056c565b6001600160a01b0382166000908152600360205260408120805460019290611917908490612510565b909155505060008181526002602052604080822080546001600160a01b0319166001600160a01b03861690811790915590518392907fddf252ad1be2c89b69c2b068fc378daa952ba7f163c4a11628f55a4df523b3ef908290a45050565b61197e82611532565b6119e15760405162461bcd60e51b815260206004820152602e60248201527f45524337323155524953746f726167653a2055524920736574206f66206e6f6e60448201526d32bc34b9ba32b73a103a37b5b2b760911b606482015260840161056c565b600082815260066020908152604090912082516106a292840190611fad565b60008111611a505760405162461bcd60e51b815260206004820152601c60248201527f5072696365206d757374206265206174206c6561737420312077656900000000604482015260640161056c565b6009543414611a715760405162461bcd60e51b815260040161056c9061247b565b6040805160a08101825283815233602080830182815230848601818152606086018881526000608088018181528b8252600b909652979097209551865591516001860180546001600160a01b03199081166001600160a01b0393841617909155925160028701805490941691161790915593516003840155516004909201805460ff191692151592909217909155611b0991846116a6565b604080513381523060208201529081018290526000606082015282907fb640004f1d14576d0c209e240cad0410e0d8c0c33a09375861fbadae2588a98d9060800160405180910390a25050565b816001600160a01b0316836001600160a01b03161415611bb85760405162461bcd60e51b815260206004820152601960248201527f4552433732313a20617070726f766520746f2063616c6c657200000000000000604482015260640161056c565b6001600160a01b03838116600081815260056020908152604080832094871680845294825291829020805460ff191686151590811790915591519182527f17307eab39ab6107e8899845ad3d59bd9653f200f220920489ca2b5937696c31910160405180910390a3505050565b611c308484846116a6565b611c3c84848484611d86565b610be35760405162461bcd60e51b815260040161056c90612429565b6060611c6382611532565b611cc75760405162461bcd60e51b815260206004820152602f60248201527f4552433732314d657461646174613a2055524920717565727920666f72206e6f60448201526e3732bc34b9ba32b73a103a37b5b2b760891b606482015260840161056c565b6000611cde60408051602081019091526000815290565b90506000815111611cfe5760405180602001604052806000815250611006565b80611d0884611e93565b604051602001611d1992919061232e565b6040516020818303038152906040529392505050565b805480611d7e5760405162461bcd60e51b815260206004820152601b60248201527f436f756e7465723a2064656372656d656e74206f766572666c6f770000000000604482015260640161056c565b600019019055565b60006001600160a01b0384163b15611e8857604051630a85bd0160e11b81526001600160a01b0385169063150b7a0290611dca90339089908890889060040161235d565b602060405180830381600087803b158015611de457600080fd5b505af1925050508015611e14575060408051601f3d908101601f19168201909252611e1191810190612257565b60015b611e6e573d808015611e42576040519150601f19603f3d011682016040523d82523d6000602084013e611e47565b606091505b508051611e665760405162461bcd60e51b815260040161056c90612429565b805181602001fd5b6001600160e01b031916630a85bd0160e11b149050611240565b506001949350505050565b606081611eb75750506040805180820190915260018152600360fc1b602082015290565b8160005b8115611ee15780611ecb816125ba565b9150611eda9050600a83612528565b9150611ebb565b60008167ffffffffffffffff811115611f0a57634e487b7160e01b600052604160045260246000fd5b6040519080825280601f01601f191660200182016040528015611f34576020820181803683370190505b5090505b841561124057611f4960018361253c565b9150611f56600a866125d5565b611f61906030612510565b60f81b818381518110611f8457634e487b7160e01b600052603260045260246000fd5b60200101906001600160f81b031916908160001a905350611fa6600a86612528565b9450611f38565b828054611fb99061257f565b90600052602060002090601f016020900481019282611fdb5760008555612021565b82601f10611ff457805160ff1916838001178555612021565b82800160010185558215612021579182015b82811115612021578251825591602001919060010190612006565b5061202d929150612031565b5090565b5b8082111561202d5760008155600101612032565b600067ffffffffffffffff8084111561206157612061612615565b604051601f8501601f19908116603f0116810190828211818310171561208957612089612615565b816040528093508581528686860111156120a257600080fd5b858560208301376000602087830101525050509392505050565b80356001600160a01b03811681146120d357600080fd5b919050565b6000602082840312156120e9578081fd5b611006826120bc565b60008060408385031215612104578081fd5b61210d836120bc565b915061211b602084016120bc565b90509250929050565b600080600060608486031215612138578081fd5b612141846120bc565b925061214f602085016120bc565b9150604084013590509250925092565b60008060008060808587031215612174578081fd5b61217d856120bc565b935061218b602086016120bc565b925060408501359150606085013567ffffffffffffffff8111156121ad578182fd5b8501601f810187136121bd578182fd5b6121cc87823560208401612046565b91505092959194509250565b600080604083850312156121ea578182fd5b6121f3836120bc565b915060208301358015158114612207578182fd5b809150509250929050565b60008060408385031215612224578182fd5b61222d836120bc565b946020939093013593505050565b60006020828403121561224c578081fd5b81356110068161262b565b600060208284031215612268578081fd5b81516110068161262b565b60008060408385031215612285578182fd5b823567ffffffffffffffff81111561229b578283fd5b8301601f810185136122ab578283fd5b6122ba85823560208401612046565b95602094909401359450505050565b6000602082840312156122da578081fd5b5035919050565b600080604083850312156122f3578182fd5b50508035926020909101359150565b6000815180845261231a816020860160208601612553565b601f01601f19169290920160200192915050565b60008351612340818460208801612553565b835190830190612354818360208801612553565b01949350505050565b6001600160a01b038581168252841660208201526040810183905260806060820181905260009061239090830184612302565b9695505050505050565b602080825282518282018190526000919060409081850190868401855b8281101561240957815180518552868101516001600160a01b03908116888701528682015116868601526060808201519086015260809081015115159085015260a090930192908501906001016123b7565b5091979650505050505050565b6020815260006110066020830184612302565b60208082526032908201527f4552433732313a207472616e7366657220746f206e6f6e20455243373231526560408201527131b2b4bb32b91034b6b83632b6b2b73a32b960711b606082015260800190565b60208082526024908201527f5072696365206d75737420626520657175616c20746f206c697374696e6720706040820152637269636560e01b606082015260800190565b60208082526031908201527f4552433732313a207472616e736665722063616c6c6572206973206e6f74206f6040820152701ddb995c881b9bdc88185c1c1c9bdd9959607a1b606082015260800190565b60008219821115612523576125236125e9565b500190565b600082612537576125376125ff565b500490565b60008282101561254e5761254e6125e9565b500390565b60005b8381101561256e578181015183820152602001612556565b83811115610be35750506000910152565b600181811c9082168061259357607f821691505b602082108114156125b457634e487b7160e01b600052602260045260246000fd5b50919050565b60006000198214156125ce576125ce6125e9565b5060010190565b6000826125e4576125e46125ff565b500690565b634e487b7160e01b600052601160045260246000fd5b634e487b7160e01b600052601260045260246000fd5b634e487b7160e01b600052604160045260246000fd5b6001600160e01b03198116811461264157600080fd5b5056fea26469706673582212206baddc6d81bbdbc22edb31447393b1f172aa17e9fe832ee396a8c5d1df48597064736f6c63430008040033",
  "linkReferences": {},
  "deployedLinkReferences": {}
}